:020000022000DC
:1060000000000420CD6A04000D6B04000F6B040037
:10601000116B0400136B0400156B040000000000FA
:10602000000000000000000000000000A992040031
:10603000196B040000000000C99204001D6B0400ED
:106040001D9404001F6B04001F6B04002101040059
:106050001F6B04001F6B0400296D04001F6B0400FC
:106060001F6B04001F6B04001F6B04001F6B0400F8
:106070001F6B04001F6B04001F6B04001F6B0400E8
:106080001F6B0400F98F04001F6B04001F6B0400DA
:106090001F6B04001F6B0400451003001F6B0400FE
:1060A0001F6B04001F6B04001F6B04001F6B0400B8
:1060B0001F6B04001F6B04000000000000000000C4
:1060C0001F6B04001F6B04001F6B0400319D040054
:1060D0001F6B04001F6B04001F6B0400753103006D
:1060E0001F6B0400E99804001F6B0400000000000F
:1060F000000000001F6B040000000000A99D0400C8
:10610000000000000000000000000000000000008F
:10611000000000000000000000000000000000007F
:10612000000000000000000000000000000000006F
:10613000000000000000000000000000000000005F
:10614000000000000000000000000000000000004F
:10615000000000000000000000000000000000003F
:10616000000000000000000000000000000000002F
:10617000000000000000000000000000000000001F
:10618000000000000000000000000000000000000F
:1061900000000000000000000000000000000000FF
:1061A00000000000000000000000000000000000EF
:1061B00000000000000000000000000000000000DF
:1061C00000000000000000000000000000000000CF
:1061D00000000000000000000000000000000000BF
:1061E00000000000000000000000000000000000AF
:1061F000000000000000000000000000000000009F
:10620000F1EE103A43F08073E1EE103A704700BFB0
:1062100010B5054C237833B9044B13B10448AFF3E0
:1062200000800123237010BD906300200000000057
:1062300084EF050008B5034B1BB103490348AFF3D6
:10624000008008BD000000009463002084EF05007A
:10625000154B002B08BF134B9D46A3F5803A002138
:106260008B460F461348144A121A2AF067FE0F4B4A
:10627000002B00D098470E4B002B00D098470020F1
:10628000002104000D000D48002802D00C48AFF397
:1062900000802AF08FFD2000290025F0DBF92AF08C
:1062A00063FD00BF000008000000042000000000A3
:1062B000000000009063002050A2002000000000B9
:1062C000000000003FDF704700207047037C13F0A0
:1062D000080306D0C36A406A181A48BF6FF000402E
:1062E00070471846704700BF704700BF704700BF37
:1062F000014B01221A707047BC630020024A1378D8
:1063000083F0010313707047B9660020F0B5084CA4
:1063100083B02468BDF92070256800930E4601976C
:106320001346014632462046EC6DA04703B0F0BD4F
:10633000D46B0020014B01221A7070476364002067
:10634000014B00221A7070478C660020014820F033
:106350009FB900BF08640020014820F099B900BF30
:10636000F0630020014820F093B900BFC063002013
:10637000014820F08DB900BFD863002038B5054C26
:10638000A4F14805204624F081FFAC42A4F10C049E
:10639000F8D138BD106D002038B5054CA4F1540576
:1063A000204624F073FFAC42A4F10C04F8D138BDB0
:1063B000C8640020103017F05BB800BF103016F032
:1063C00057BF00BF00B583B001220DF107011030A7
:1063D00016F084FE01280CBF9DF807004FF0FF3037
:1063E00003B05DF804FB00BF103017F0A9B800BF80
:1063F00000B583B00B4601220DF1070110308DF876
:10640000073017F09DF803B05DF804FB10B5144693
:10641000630A0A460146044818F08AFF002814BFA0
:1064200020464FF0FF3010BD806B002010B51446A1
:10643000630A0A460146044818F0BEFF002814BF4C
:1064400020464FF0FF3010BD806B002000B50146A4
:1064500089B00B480AF0EEFD002320226946CDE901
:106460000033CDE90333CDE905330293079308F0F8
:1064700053FF044B01221A7009B05DF804FB00BF02
:10648000C86D00208C66002010B5114C114818F022
:106490006BFF04F1240018F04FF818B90E4B0122DD
:1064A0001A7010BD04F50C7018F046F80028F5D0ED
:1064B000206803685B6898470028EFD04FF0FF33EF
:1064C0000022E362044B84F8242001221A7010BDDC
:1064D000F8660020806B0020B86600202DE9F04FA0
:1064E0002DED028B95B0A44CDFF894C2BDF98080ED
:1064F000C4F800C0002600F110050F4628463146BA
:10650000CDE9027226711F46A4F806800DF11F091D
:1065100016F0F6FE0DF14F0A4FF0FF0B05E09DF867
:106520001F3009F8013FCA450BD001220DF11F01B0
:10653000284616F0D3FD0128F1D009F801BFD14556
:10654000F3D19DF82FC09DF82E109DF821E09DF805
:1065500020209DF82B309DF82A0001EB0C2102EB46
:106560000E2221F0100C00EB032092B20023BCF1AC
:10657000280FC4E90433C4E906332281E160608155
:1065800004D015B0BDEC028BBDE8F08F9DF836301D
:106590009DF83C009DF84EC09DF837A09DF83D90B9
:1065A0009DF84FE09DF833B09DF8321003EB0A2AB6
:1065B00000EB09230CEB0E2044F6425C01EB0B21AF
:1065C0006245C4E9041AC4E90630DAD10029D8D0FA
:1065D000BAF1000FD5D0002BD3D07A1AA8EB0A0A53
:1065E0004FEA520CD2034FEA5A004AF34F0A03D43F
:1065F000029A624412B20292BAF1000F03DB039ACC
:10660000024412B203928F4228BF0F4678000493CF
:106610002AF0FCFB049BA062002800F01482082BE7
:1066200040F2B080102B00F09181D4E90421B4F93C
:10663000060002FB03F3814203F11F0388BF081A1F
:106640004FEA53138CBF02B200229B009BB29142CF
:106650002384049240F28980BDF80C2005923AB25E
:10666000194608EE102A049B6289284603FB012183
:1066700016F046FE002F7CD04FF0000B0DF1200AE3
:1066800001225146284616F029FD012201285146D3
:1066900028460CBF9DF820804FF0FF3816F01EFDF5
:1066A00001220128514628460CBF9DF820604FF07A
:1066B000FF3616F013FD012808BF9DF82030A269AF
:1066C0000EBF9946FF234FF0FF39202A06D1012241
:1066D00051462846039316F001FD039B22796AB3C5
:1066E0004FEA4818C6F3421208F4F858F60248EA8E
:1066F000020806F4FC26A26A03F0F80348EA06063C
:10670000334322F81B300BF1010B5F45B8D16369AD
:106710002668029801210091591E059B1944049B8B
:10672000C91A09B218EE103AB047049A63690132E7
:106730009342049219D9218C134695E70F4BA26A14
:10674000F60006F4FC66C8F3C40846EA080603EA45
:10675000092946EA090622F81B600BF1010B5F4587
:106760008ED1D4E7606A2AF059FBA06A2AF056FB62
:1067700007E7A26ACBE700BF3464002000F8FFFF00
:106780000D630200D4F81C804FEA48002AF03EFB5B
:106790006062002800F05D81B8F1000F03D1A269AA
:1067A00001239340E3613621284616F0A9FDE369F1
:1067B000002B4AD04FF0000B08A9CDE90476D8464B
:1067C0000E4601223146284616F088FC012808BFF3
:1067D0009DF820904FF00102314628460CBF4FEA49
:1067E000D9094FF01F0916F079FC012808BF9DF860
:1067F00020A04FF0010208BF4FEAAA0A31462846FE
:106800000CBF4FEA4A1A4FF4FC6A16F067FC0128E5
:1068100040F017819DF82030DB10DB021FB201220F
:106820003146284616F05AFC08F10108E069626A10
:106830000FFA88F849EA0A0947EA0903804522F86D
:106840001B30C346BDD3DDE90476D4E90432A06928
:10685000B4F9061003FB00F31F335B094FF0010886
:1068600008FA00F89B009BB208F1FF388A424FF00B
:10687000080C2384BCFBF0F05FFA88F8049000F267
:10688000DB80002189468A427FF66CAFBDF80C2080
:1068900005923AB208EE102A0396194662892846F4
:1068A00001FB092116F02CFD002F4DD04FF0000CFC
:1068B000039EE346E246BCF1000F4FF0010208A937
:1068C00028460ADC16F00AFC012808BF9DF8206063
:1068D000DDF810C018BF4FF0FF36A069616A227959
:1068E000864046F3072000EA08000AF1010A0CF18D
:1068F000FF3C31F810100FFA8AFA0FFA8CFC36B20E
:106900000AB149BA89B2A26A574522F81B10D34688
:10691000D1D8039663690298266801210091591E17
:10692000059B1FFA89F91944A1EB090118EE103AE9
:1069300009B2B04709F1010963690FFA89F999456C
:10694000BFF410AF218CA9E7A26AE3E7D4E90432CF
:10695000B4F9068042481B01424503F11F0388BF7A
:10696000A2EB08024FEA53134FEA830388BF0FFAE2
:1069700082F839464FF00A02238498BF4FF000088E
:1069800024F01CFB636943457FF6EFAEBDF80C3085
:1069900003933BB208EE103A218C6389284608FB2A
:1069A000013116F0ADFC97B300260DF1200905E08A
:1069B000A26A22F816300136B74229D00122494690
:1069C000284616F08BFB012808BF9DF820A04946F9
:1069D0004FF0010228460EBFD3464FF0FF3B4FF069
:1069E000FF0A16F07BFB012808BF9DF820302279B2
:1069F00016BFFF2319464FF0FF3143EA0B23002A4D
:106A0000D6D1A26A4AEA012A22F816A0D3E7A26ADE
:106A100063692668029801210091591E039B19445D
:106A2000A1EB080118EE103A09B2B047636908F10A
:106A300001084345B0D898E6511A0FFA81F9494642
:106A400021E7084FEBE60849054824F011F9A3694E
:106A5000E5E50649024824F00BF9D4F81C809BE6D2
:106A60003C76002000F8FFFF4C55050064550500FA
:106A700038B5354B354C00221A7020461BF02EF9E4
:106A80000028FAD031481BF04DF9D0B92F481BF03F
:106A900051F918B12E4C2378002B44D02B481BF011
:106AA00045F968B12B4B2C4A1B78294D012B08BFA7
:106AB00013782C780CBF83F001030023137034B1DA
:106AC00038BD22481BF0EAF8244B1860DEE7244862
:106AD0001FF0AEFF0028F3D01021224823F04CFF16
:106AE000204823F0FFFE1F480A2123F029FF2146FA
:106AF0001C4823F039FF1B484FF4807123F02EFF10
:106B0000194B18481A881021234623F0A5FF174A6D
:106B10001748012313702B701FF040FFBDE8384069
:106B200014481FF03BBF0E481FF082FF0028B5D06D
:106B30000E4A0F480123137023701FF02FFF0D48DA
:106B40001FF02CFFAAE700BFBC6300208C6C002064
:106B50001C600020F96B00201C6C00202C6D0020B4
:106B6000BC66002004990020186000200860002006
:106B7000D8660020486C002070B5834882B01FF0B2
:106B800087FD82481FF084FD81481FF081FD814808
:106B90001FF07EFD7C481FF0E3FC78B17E4C23782B
:106BA000002B6CD17D4E3378002B00F086807C4B1F
:106BB0001A781AB97B4A1278002A6FD073481FF0EE
:106BC000CFFC38B1744C784D2378002B48D12A780B
:106BD000002A32D16E481FF0C3FC78B1734B1B788A
:106BE000CBB9734B1A78B2B96B4A1278BAB96B4AFF
:106BF0001278002A40F0C18001221A7065481FF007
:106C0000AFFC30B1644B1B781BB16A4B1B78012B76
:106C10007ED002B070BD604B1B78002BEED0654B70
:106C20001B78012BEAD1644B1B78002B40F0A0802D
:106C30006249634824F0D2F8E0E7624A624801936F
:106C400062491370624E00681422009228220B7071
:106C500033701146AF231DF0A3FA2378002BB9D06F
:106C60005C49574824F0BAF82B78002B5AD1514888
:106C7000594A00230121037023701170AAE74D4D7A
:106C80002B78012B6AD0022B98D154494C4824F020
:106C9000A5F82378002B91D1404E0BE05048424D8F
:106CA000027001214F4819702A701FF09DFE237851
:106CB000002BE4D13378002B80D13C4B1C78002C86
:106CC0007FF47CAF1021484823F056FE464823F05D
:106CD00009FE45480A2123F033FE2146424823F0AD
:106CE00043FE41484FF4807123F038FE3F4B3E484D
:106CF0001A881021234623F0AFFE3D4A394801236C
:106D0000137033701FF04AFE3A481FF047FE55E7F4
:106D1000294B1B7853B33849294802B0BDE870406D
:106D200024F05CB8284D00220E2328686421CDE9A8
:106D3000003210220C231DF033FA28682F4B836198
:106D400002211DF0C5FB28682D494FF0F823C361CF
:106D500024F044F82B682B4ADA6188E71D4918486B
:106D600024F03CF82B78022B93D18EE72649D3E709
:106D70002649134824F032F840E70B4A1278002ADB
:106D80003FF43CAF38E700BFF0630020D863002039
:106D9000C063002008640020F86B00201C60002005
:106DA000DF6B0020E16B0020E26B0020DC6B002039
:106DB0007D6C0020F96B00201C6C00209C550500A8
:106DC000B0650020F16B0020D46B0020F26B002036
:106DD0001D6C00207C5505000C6C00208C550500B6
:106DE000F06B0020D8660020049900201860002075
:106DF00008600020486C0020D85505006400100091
:106E00005856050020FD20FDC8550500B055050069
:106E100010B594B01A491B4C01A824F09BF94FF40B
:106E20007A7000230990184A1849ADF82C300BA845
:106E30000893079416F0BAF89DF82C3023B901A8EE
:106E400024F024FA14B010BD07A904A824F04EF9C8
:106E500004A901A824F022FA04A824F017FA01A931
:106E600004A824F091F904A909481BF0FFFB04A829
:106E700024F00CFA01A824F009FA14B010BD00BFE8
:106E80000CCC0500345B0500EC550500346B00208C
:106E9000C06B00202DE9F0414348DFF84481434FA7
:106EA000434E444D444C8EB01BF09EF903463E4881
:106EB000C8F800301BF0BAF903463B483B601BF0B2
:106EC000D7F90346384833601BF0F4F903463648D7
:106ED0002B601BF011FA394903463948236016F03C
:106EE000FDF900234FF47A71DFF8F8C0ADF81430E3
:106EF0000293039144F20223324A3149CDF804C08F
:106F000005A816F053F89DF8143013B90EB0BDE87B
:106F1000F0812D4901A823F04DFE0A22D8F8001077
:106F200001A824F07DF8294901A823F043FE28494F
:106F300001A823F03FFE0A22396801A824F070F866
:106F4000224901A823F036FE224901A823F032FE8F
:106F50000A22316801A824F063F81C4901A823F033
:106F600029FE1D4901A823F025FE0A22296801A84F
:106F700024F056F8154901A823F01CFE174901A872
:106F800023F018FE0A22216801A824F049F80F49CD
:106F900001A823F00FFE01A823F0BAFE05A815F002
:106FA0009BFF0EB0BDE8F081C06B0020346C002068
:106FB000486D0020BC6B0020B86B00200056050017
:106FC000346B0020EC5505001456050020560500D2
:106FD000245605002C560500345605004056050081
:106FE000D0660020345B05002DE9F04FBE4CDFF881
:106FF0005C93206885B000211DF0B8F9206802215B
:107000001DF066FA2068B94B83614FF0FF33B84931
:10701000C36123F0CFFD2068B64AB74BC261B749C0
:10702000836123F0C7FD2068B54BB649836123F027
:10703000C1FD2068B44BB549836123F0BBFD2068D6
:10704000B34B8361B34923F0B5FD206805211DF0E2
:107050003FFAD9F800102068AF4AB04B8261092985
:10706000C36100F39681AE4923F0A4FDD9F8001066
:1070700020680A2223F0D4FF2068DFF8D482A949CF
:107080006FF01F13C36123F095FDD8F80010092994
:1070900000F38381A249206823F08CFDD8F800100A
:1070A00020680A2223F0BCFF206802211DF010FA9C
:1070B0009D4B20681B78002B00F074819B4A8D4B00
:1070C0009B498261C36123F075FDDFF888A2994D69
:1070D000DFF884B20127984E82E058461FF0A8FCE2
:1070E000002853D0002F00F0AD8023230022CDE9EB
:1070F000003220683C2362222D211DF051F82068C7
:1071000005211DF0E5F9D9F800102068824A834B6B
:1071100082610929C36100F3DF80814923F04AFDC0
:10712000D9F8001020680A2223F07AFF20687D49F0
:107130006FF01F13C36123F03DFDD8F8001009293B
:1071400000F3C5807649206823F034FDD8F800109C
:1071500020680A2223F064FF734B1B78002B58D061
:10716000206802211DF0B4F90E230022CDE900327F
:1071700020682423C8225A211DF012F820686B4A87
:107180005C4B6B498261C36123F014FD30461FF0F4
:107190007FFA6A481FF07CFA69481FF079FA69485B
:1071A0001FF076FA30461FF0DBF9002840F0DA8055
:1071B00062481FF0D5F908B187F0010760481FF059
:1071C000CFF940B1002F6BD0D9F80030013B48BF58
:1071D0001723C9F800305B481FF0C2F900286BD1B3
:1071E0009AF80030002B3FF478AF00238AF8003083
:1071F00028461AF073FD0028FAD028461AF096FDAA
:1072000000283FF46AAF484A137883F001031370F3
:1072100063E72068039302211DF05AF9039B20685D
:107220000E22CDE900235A212423C8221CF0B8FFE6
:1072300020683E4B83614FF0F8234349C36123F03C
:10724000B9FCA3E7206805211DF042F92068D9F8B0
:107250000010314B836109296FF01F13C3617DDC7E
:107260002F4923F0A7FCD9F8001020680A2223F048
:10727000D7FE2C49206823F09DFC23230022CDE972
:10728000003220683C23872162221CF089FFD8F855
:1072900000102068214BC361092921DC204953E7F4
:1072A000D8F800302748013B48BF3B23C8F80030DE
:1072B0001FF056F9002893D0002F61D0D9F8003084
:1072C0000133172B77DD0023C9F8003003E720686E
:1072D0000A2223F0A5FE3FE70A2223F0A1FE25E7BC
:1072E0000A2223F09DFE37E7D46B0020A500320070
:1072F0004C560500E007E0075A00140054560500FC
:10730000230032005C5605002300B40060560500DF
:10731000A500B400645605002D00620020FD20FD8C
:10732000DC9F050098580500706400205A00C800D2
:10733000685605008C6C0020F0630020D8630020A4
:10734000C0630020086400206C56050068640020BB
:107350006C640020BC630020486C00200A2223F0EB
:107360005FFE86E7154A164B2068002111701970E0
:107370001CF0FCFF134805B0BDE8F04F1FF034BB14
:10738000D8F8003001333B2BC8BF3B46C8F800306B
:10739000A1E60A2223F044FE6EE620680A2223F0CA
:1073A0003FFE81E6084B83614FF0F8230749C36134
:1073B00023F000FC89E6C9F800308CE6E16B002080
:1073C000DD6B0020D86600205A00C8006C5605000E
:1073D000F8B5234E234D3068234C244F00211CF078
:1073E000C5FF306802211DF073F83068204B8361BF
:1073F0004FF01F131F49C36123F0DCFB30681E4BA5
:10740000C3611E4B1E49836123F0D4FB30681D4BC2
:107410001D49836123F0CEFB02E01FF0A1F8C8B93B
:1074200028461FF035F920461FF032F928461FF094
:1074300097F803462046002BEFD0144B144A3068CF
:107440000021197011701CF091FFBDE8F84011483F
:107450001FF0CABA3946104823F0C0FCE0E700BF6D
:10746000D46B0020F0630020C06300208C56050020
:10747000A50032004C560500E007E0071800640044
:10748000705605002300B40084560500E16B00200F
:10749000DE6B0020D8660020B06500202DE9F043A7
:1074A000DFF824913F4FD9F800003F4D03683F4E6D
:1074B0005B6FDFF8188185B09847D9F800004FF668
:1074C000FF711CF053FF1021394823F055FA38485A
:1074D00023F008FA36480A2123F032FA3448002112
:1074E00023F042FA32484FF4807123F037FA002338
:1074F000FA2210212E4823F0AFFA2E481FF04EFA40
:1075000004E02D481FF02CF800283BD13B78294699
:1075100030467BB123F01CFC414601A823F01AFE43
:1075200001A9284623F084FF044601A823F0AEFEFB
:10753000002C2DDA20481FF0ABF81E481FF078FA17
:107540000028DED01D481E4C0E2200211AF010FD2E
:1075500001211A4800221AF00BFD18481AF030FDDC
:1075600023781F210BB94FF6FF71D9F800001CF0EA
:10757000FDFE2378104883F0010323701EF0F0FF16
:107580000028C3D00F4B00221A7005B0BDE8F0836D
:107590000C4B064800210A22197023F0D5FC05B0D7
:1075A000BDE8F083D46600209C6600203C76002075
:1075B00004990020386C0020F0630020E866002069
:1075C000E36B00207C6B0020D46B0020A0560500EC
:1075D0002DE9F0433F4FDFF84081386883B0002148
:1075E0001CF0C4FE386802211CF072FF38683A4B68
:1075F00083614FF0FF333949C36123F0DBFA386808
:10760000374B384A83613849C26123F0D3FA98F87E
:107610000030002B58D13549386823F0CBFA386850
:10762000334B3449836123F0C5FA334E334DDFF8D1
:10763000EC9002E01EF094FFD0B930461FF028F81D
:1076400028461FF025F830461EF08AFF04462846DB
:10765000002CEFD02A4A2B4B38680021117019708A
:107660001CF084FE284803B0BDE8F0431FF0BCB90D
:1076700098F80010254801944FF0010C0E2381F07A
:1076800001010093642280F800C02823386888F83C
:107690000010BE2189F800401CF082FD3B6898F87C
:1076A00000201B48986111494FF0F82C4FF01F142F
:1076B000184622B9C3F81CC023F07CFABDE715496F
:1076C000DC6123F077FAB8E71249386823F072FAE0
:1076D000A5E700BFD46B0020A50032004C56050082
:1076E00018006400E007E007A85605006C56050086
:1076F0002300B40084560500F0630020C06300201E
:10770000DE6B0020E16B0020D8660020F96B0020C2
:10771000C000640068560500F86B00200C6C002067
:107720002DE9F04F9E4DDFF8C88228689D4FDFF8A5
:10773000C49287B000211CF019FE286802211CF0B9
:10774000C7FE2868984B83614FF0FF339749C361A8
:1077500023F030FA2868964B9649836123F02AFA81
:107760002868954A954BC2618361954923F022FAB6
:10777000286805211CF0ACFE2868924B83616FF0ED
:107780001F13C361904923F015FA0A2200212868CB
:1077900023F046FC8D49286823F00CFA8A492868B2
:1077A00023F008FA0A220021286823F039FC28680F
:1077B00002211CF08DFE2868854B8649836123F0E9
:1077C000F9F92868844B8549836123F0F3F9002394
:1077D0001C468348039326461FF006F9A3460494EB
:1077E000A24640461EF054FF38461EF051FF484660
:1077F0001EF04EFF7B481EF04BFF40461EF0B0FED1
:107800000446002866D138461EF0AAFE00286BD137
:1078100048461EF0A5FE044658B156B9049B704870
:10782000002B40F0A0801FF0DFF86D4826461FF0C7
:10783000B5F86C481EF094FE044650B1039B002B33
:1078400061D1002666480394B2461FF04FF8B34654
:10785000C7E7002EC5D062481FF0EAF8059000285F
:10786000BFD00AF1010A23230022BAF13A0FCDE971
:10787000003228684FF096034FF062024FF02D015E
:10788000C4BF0BF1010BA2461CF08AFC28684D4BCB
:10789000836105211CF01CFEBBF1090F6EDC4A4917
:1078A000286823F087F928680A22594623F0B8FB94
:1078B0004649286823F07EF9BAF1090F57DC42499E
:1078C000286823F077F92868059E0A22514623F09C
:1078D000A7FB86E742481FF009F8384604940026C3
:1078E0001EF03EFE002893D03D481EF0FFFF3E4BA9
:1078F0002868002119701CF039FD3C4807B0BDE82C
:10790000F04F1FF071B836481FF06EF823230022A5
:10791000CDE900322868962362222D211CF040FC1C
:107920002868284B836105211CF0D2FDBBF1090FAB
:1079300030DC2549286823F03DF9286859460A2299
:1079400023F06EFB2149286823F034F9BAF1090FBE
:107950001ADC1D49286823F02DF9286851460A22AF
:1079600023F05EFB6DE71EF0EDFF049E61E72868E3
:107970000A22514623F054FB059E32E728680A226A
:10798000594623F04DFB93E7286851460A2223F01D
:1079900047FB56E7286859460A2223F041FBD1E706
:1079A000D46B0020D86300209B003200B85605003D
:1079B00023003200C0560500E007E0075F00140016
:1079C000C85605002D006200DC9F05009858050090
:1079D0002300B400D05605009B00B4004C560500AF
:1079E0002464002008640020E16B0020D866002099
:1079F000F0630020C06300202DE9F84F274DDFF829
:107A0000B0B02868264F274EDFF8A89000211CF060
:107A1000ADFC286803211CF05BFD2868224B8361C4
:107A20004FF0F8232149C36123F0D8F928680221D7
:107A30001CF04EFD46244FF0000A4FF0FF380FE0D7
:107A4000092A25D003834483594623F081F93378EA
:107A50000AF1010A12345345A4B20BF10C0B1ADBE4
:107A6000DBF808203B782868534522F0010303EB3C
:107A7000520322F002014FEA83030CBFC0F81C90AE
:107A8000C0F81C80C3F178030529A3F10601D7D102
:107A900001834483D8E7BDE8F88F00BFD46B002092
:107AA000C46C00201160002030001E00D856050074
:107AB000C86C0020E007E00710B584B018F03CFD6A
:107AC000012829D0022824D0032810D0042811D15D
:107AD000134A144B106811210B224FF4FC648DE8FB
:107AE0001600982282211CF08BFF04B010BD0C4AB6
:107AF0000D4BEFE7052802D1094A0C4BEAE70628AF
:107B000002D1074A0A4BE5E70728EED1044A094BA0
:107B1000E0E7034A084BDDE7014A084BDAE700BF1C
:107B2000D46B0020C86005004C640500706405003B
:107B3000B467050028640500FC670500D8670500E8
:107B40002DE9F04F784E2DED028B3468A5B04FF043
:107B500000090A2CCDE90399CDF814905ED00B2CC6
:107B600000F0BF800C2C00F030810D2C00F0538110
:107B70000E2C00F076810F2C00F09981102C00F073
:107B8000BC81112C00F0DF81122C00F00282132C3A
:107B900000F02582142C00F04882152C00F06B8236
:107BA000162C00F0A982182C00F0CC82192C00F0C1
:107BB000EF821A2C00F012831B2C00F035831C2C52
:107BC00000F058831D2C00F07B831E2C00F09E8358
:107BD0001F2C00F0C183212C00F0E483222C00F044
:107BE0000784242C00F04784252C00F06A84262C7E
:107BF00000F08D84272C00F0B084282C00F0D38472
:107C0000292C00F0F6842A2C00F056852F2C00F049
:107C1000CE8525B0BDEC028BBDE8F08F1BAD4FF4D7
:107C20007A73424C424F434A43491797CDE9189320
:107C300028464B46ADF86C900DF12B0B15F0B6F9BC
:107C40003E4A84F804902F23284649462260E38068
:107C5000DA4615F055FB0DF15B074FF0FF0805E024
:107C60009DF82B300AF8013FBA450AD00122594647
:107C7000284615F033FA0128F2D00AF8018FBA45E8
:107C8000F4D19DF83B709DF83A109DF82DC09DF8F9
:107C90002C309DF837209DF8360001EB072103EBCF
:107CA0000C2321F0100700EB02209BB20022282FAA
:107CB000C4E90422C4E906222381E160608101F065
:107CC0004380284615F008F91D4A002310680093E8
:107CD000AA222F2341211CF00DFA34680B2C7FF4CB
:107CE00041AF0027124C174A17941BAD4FF47A711D
:107CF000CDE918710D4C1049ADF86C703B46284623
:107D000015F054F90DF12B0B0C4A277139462F232E
:107D100028462260E380D94615F0F2FA0DF15B07A0
:107D20004FF0FF0816E000BF0C6000203464002014
:107D3000345B0500E4560500346B00200D6302003F
:107D4000D46B0020EC5605009DF82B3009F8013F5C
:107D5000B9450AD001225946284615F0BFF9012835
:107D6000F2D009F8018FB945F4D19DF83B709DF828
:107D70003A109DF82DC09DF82C309DF837209DF8C5
:107D8000360001EB072103EB0C2321F0100700EB79
:107D900002209BB20022282FC4E90422C4E9062253
:107DA0002381E160608100F02885284615F094F871
:107DB000C04A002310680093AA222F2341211CF0FF
:107DC00099F934680C2C7FF4D0AE0024BA4DBB4A2C
:107DD000BB49179523462F251BA84FF47A77CDE989
:107DE0001847ADF86C4015F0E1F82B46AA22412166
:107DF00017A80095FEF772FB1BA815F06DF8AD4AA9
:107E0000009410682B46AA2241211CF073F93468B3
:107E10000D2C7FF4ADAE0024A74DAA4AA8491795B2
:107E200023462F251BA84FF47A77CDE91847ADF8E4
:107E30006C4015F0BBF82B46AA22412117A80095EB
:107E4000FEF74CFB1BA815F047F89A4A00941068FF
:107E50002B46AA2241211CF04DF934680E2C7FF4E8
:107E60008AAE0024944D984A9549179523462F25AC
:107E70001BA84FF47A77CDE91847ADF86C4015F0A0
:107E800095F82B46AA22412117A80095FEF726FB5C
:107E90001BA815F021F8874A009410682B46AA22E7
:107EA00041211CF027F934680F2C7FF467AE0024C1
:107EB000814D864A8249179523462F251BA84FF4EA
:107EC0007A77CDE91847ADF86C4015F06FF82B467E
:107ED000AA22412117A80095FEF700FB1BA814F069
:107EE000FBFF744A009410682B46AA2241211CF023
:107EF00001F93468102C7FF444AE00246E4D744AAE
:107F00006F49179523462F251BA84FF47A77CDE9A3
:107F10001847ADF86C4015F049F82B46AA224121CC
:107F200017A80095FEF7DAFA1BA814F0D5FF614AEE
:107F3000009410682B46AA2241211CF0DBF834681B
:107F4000112C7FF421AE00245B4D624A5C491795E9
:107F500023462F251BA84FF47A77CDE91847ADF8B3
:107F60006C4015F023F82B46AA22412117A8009552
:107F7000FEF7B4FA1BA814F0AFFF4E4A0094106845
:107F80002B46AA2241211CF0B5F83468122C7FF44C
:107F9000FEAD0024484D504A4949179523462F25E8
:107FA0001BA84FF47A77CDE91847ADF86C4014F070
:107FB000FDFF2B46AA22412117A80095FEF78EFA55
:107FC0001BA814F089FF3B4A009410682B46AA2294
:107FD00041211CF08FF83468132C7FF4DBAD0024B2
:107FE000354D3E4A3649179523462F251BA84FF499
:107FF0007A77CDE91847ADF86C4014F0D7FF2B46DF
:10800000AA22412117A80095FEF768FA1BA814F0D0
:1080100063FF284A009410682B46AA2241211CF0D5
:1080200069F83468142C7FF4B8AD0024224D2C4A32
:108030002349179523462F251BA84FF47A77CDE9BE
:108040001847ADF86C4014F0B1FF2B46AA2241212D
:1080500017A80095FEF742FA1BA814F03DFF154A39
:10806000009410682B46AA2241211CF043F8346882
:10807000152C7FF495AD00240F4D1A4A1049179521
:1080800023462F251BA84FF47A77CDE91847ADF882
:108090006C4014F08BFF2B46AA22412117A80095B3
:1080A000FEF71CFA1BA814F017FF024A0094106890
:1080B0002B4619E0D46B0020345B0500F456050014
:1080C000346B0020FC560500045705000C570500D2
:1080D000145705001C570500245705002C570500B0
:1080E000345705003C570500AA2241211CF002F834
:1080F0003468162C7FF457AD0024C04DC04AC149E6
:10810000179523462F251BA84FF47A77CDE91847FA
:10811000ADF86C4014F04AFF2B46AA22412117A863
:108120000095FEF7DBF91BA814F0D6FEB64A0094C2
:1081300010682B46AA2241211BF0DCFF3468182C62
:108140007FF434AD0024AD4DB04AAE4917952346B7
:108150002F251BA84FF47A77CDE91847ADF86C406E
:1081600014F024FF2B46AA22412117A80095FEF700
:10817000B5F91BA814F0B0FEA34A009410682B4672
:10818000AA2241211BF0B6FF3468192C7FF411ADEF
:1081900000249A4D9E4A9B49179523462F251BA8DC
:1081A0004FF47A77CDE91847ADF86C4014F0FEFE35
:1081B0002B46AA22412117A80095FEF78FF91BA88C
:1081C00014F08AFE904A009410682B46AA2241219E
:1081D0001BF090FF34681A2C7FF4EEAC0024874D1E
:1081E0008C4A8849179523462F251BA84FF47A7788
:1081F000CDE91847ADF86C4014F0D8FE2B46AA2202
:10820000412117A80095FEF769F91BA814F064FE38
:108210007D4A009410682B46AA2241211BF06AFF78
:1082200034681B2C7FF4CBAC0024744D7A4A75491A
:10823000179523462F251BA84FF47A77CDE91847C9
:10824000ADF86C4014F0B2FE2B46AA22412117A8CB
:108250000095FEF743F91BA814F03EFE6A4A00940D
:1082600010682B46AA2241211BF044FF34681C2CC5
:108270007FF4A8AC0024614D684A624917952346F3
:108280002F251BA84FF47A77CDE91847ADF86C403D
:1082900014F08CFE2B46AA22412117A80095FEF768
:1082A0001DF91BA814F018FE574A009410682B46BD
:1082B000AA2241211BF01EFF34681D2C7FF485ACDF
:1082C00000244E4D564A4F49179523462F251BA88B
:1082D0004FF47A77CDE91847ADF86C4014F066FE9C
:1082E0002B46AA22412117A80095FEF7F7F81BA8F4
:1082F00014F0F2FD444A009410682B46AA22412152
:108300001BF0F8FE34681E2C7FF462AC00243B4D59
:10831000444A3C49179523462F251BA84FF47A77EA
:10832000CDE91847ADF86C4014F040FE2B46AA2268
:10833000412117A80095FEF7D1F81BA814F0CCFD39
:10834000314A009410682B46AA2241211BF0D2FE2C
:1083500034681F2C7FF43FAC0024284D324A294951
:10836000179523462F251BA84FF47A77CDE9184798
:10837000ADF86C4014F01AFE2B46AA22412117A832
:108380000095FEF7ABF81BA814F0A6FD1E4A00945A
:1083900010682B46AA2241211BF0ACFE3468212C28
:1083A0007FF41CAC0024154D204A1649179523462E
:1083B0002F251BA84FF47A77CDE91847ADF86C400C
:1083C00014F0F4FD2B46AA22412117A80095FEF7D0
:1083D00085F81BA814F080FD0B4A009410682B460A
:1083E000AA2241211BF086FE3468222C7FF4F9ABCF
:1083F0000024024D0E4A034917951BE0345B05002B
:1084000044570500346B0020D46B00204C57050006
:10841000545705005C570500645705006C5705006C
:10842000745705007C570500845705008C570500DC
:108430009457050023462F251BA84FF47A77CDE9E2
:108440001847ADF86C4014F0B1FD2B46AA2241212B
:1084500017A80095FEF742F81BA814F03DFDA74AA7
:10846000009410682B46AA2241211BF043FE346879
:10847000242C7FF4B9AB0024A14DA24AA249179540
:1084800023462F251BA84FF47A77CDE91847ADF87E
:108490006C4014F08BFD2B46AA22412117A80095B1
:1084A000FEF71CF81BA814F017FD944A00941068FE
:1084B0002B46AA2241211BF01DFE3468252C7FF497
:1084C00096AB00248E4D914A8F49179523462F2550
:1084D0001BA84FF47A77CDE91847ADF86C4014F03B
:1084E00065FD2B46AA22412117A80095FDF7F6FF4E
:1084F0001BA814F0F1FC814A009410682B46AA22B4
:1085000041211BF0F7FD3468262C7FF473AB002467
:108510007B4D7F4A7C49179523462F251BA84FF496
:108520007A77CDE91847ADF86C4014F03FFD2B4643
:10853000AA22412117A80095FDF7D0FF1BA814F02F
:10854000CBFC6E4A009410682B46AA2241211BF0F6
:10855000D1FD3468272C7FF450AB0024684D6D4A60
:108560006949179523462F251BA84FF47A77CDE943
:108570001847ADF86C4014F019FD2B46AA22412192
:1085800017A80095FDF7AAFF1BA814F0A5FC5B4AED
:10859000009410682B46AA2241211BF0ABFD3468E1
:1085A000282C7FF42DAB0024554D5B4A5649179576
:1085B00023462F251BA84FF47A77CDE91847ADF84D
:1085C0006C4014F0F3FC2B46AA22412117A8009519
:1085D000FDF784FF1BA814F07FFC484A0094106844
:1085E0002B46AA2241211BF085FD3468292C7FF4FB
:1085F0000AAB0027424C494A17941BAD4FF47A71DD
:10860000CDE91871464C4049ADF86C703B462846A0
:1086100014F0CCFC0DF12B0B424A277139462F2365
:1086200028462260E380D94614F06AFE0DF15B070C
:108630004FF0FF0805E09DF82B3009F8013FB945E0
:108640000AD001225946284614F048FD0128F2D0EC
:1086500009F8018FB945F4D19DF83B709DF83A10A7
:108660009DF82DC09DF82C309DF837209DF83600E0
:1086700001EB072103EB0C2321F0100700EB022094
:108680009BB20022282FC4E90422C4E906222381D8
:10869000E160608100F09481284614F01DFC174AC7
:1086A000002310680093AA222F2341211BF022FDF2
:1086B00034682A2C7FF4AAAA0027114C1A4A17946E
:1086C0001BAD4FF47A71CDE91871154C0E49ADF818
:1086D0006C703B46284614F069FC0DF12B0B114AD7
:1086E000277139462F2328462260E3805F4614F025
:1086F00007FE0DF15B084FF0FF091DE0D46B002071
:10870000345B05009C570500346B0020A45705001E
:10871000AC570500B4570500BC570500C457050009
:10872000346400200D630200CC5705009DF82B3007
:1087300007F8013F47450AD001225946284614F060
:10874000CDFC0128F2D007F8019F4745F4D19DF8F0
:108750003B709DF83A109DF82DC09DF82C309DF887
:1087600037209DF8360001EB072103EB0C2321F0A5
:10877000100700EB02209BB20022282FC4E904223C
:10878000C4E906222381E160608100F0FB81284674
:1087900014F0A2FB854A002310680093AA222F231D
:1087A00041211BF0A7FC34682F2C7FF432AA00254E
:1087B0004FF47A71CDE918512B467D4E7D4A7E49A2
:1087C000ADF86C501BA8179614F0F0FB234617A8C1
:1087D000AA2241210094FDF781FE1BA814F07CFB26
:1087E000724A009510682346AA2241211BF082FCA0
:1087F00025B0BDEC028BBDE8F08F9DF85BC09DF805
:108800005A009DF83F109DF83EB09DF843809DF8BA
:1088100042209DF849E09DF8487000EB0C2044F69A
:10882000425C0BEB012102EB082207EB0E276345AC
:10883000C4E90412C4E906707FF4B7AA00293FF422
:10884000B4AA002A3FF4B1AA002F3FF4AEAAC1F1A6
:108850002F034FEA530CC2F12F02DB034FEA520001
:1088600058BF0CF1410C42F34F0254BF0FFA8CF386
:108870004123002AA8BFAA3008EE103AACBF83B249
:10888000AA232F2928BF2F2108934B0018468B4677
:10889000069328F0BBFAA062002801F01781082F88
:1088A00040F24286102FD4E90432B4F9061001F0E8
:1088B000018003FB07F38A4203F11F0388BF511AAB
:1088C0004FEA53138CBF09B200219B009BB28A422E
:1088D0002384079140F26F830FFA8BF2194608EE5A
:1088E000902A079B0DF12C086289284603FB012181
:1088F00014F006FD4FF0000B18E04FEA4919C7F3DA
:10890000421209F4F859FF0249EA020907F4FC2768
:1089100003F0F80349EA0707A26A3B4322F80B3049
:10892000069B0BF1020B5B4500F0128301224146CE
:10893000284614F0D3FB01220128414628460CBFEB
:108940009DF82C904FF0FF3914F0C8FB012201284C
:10895000414628460CBF9DF82C704FF0FF3714F0AD
:10896000BDFB012808BF9DF82C30A2690EBF9A46B6
:10897000FF234FF0FF3A202A06D101224146284624
:10898000039314F0ABFB039B2279002AB5D10B4A69
:10899000FB0003F4FC63C9F3C40902EA0A2A43EAB0
:1089A0000903A26A43EA0A03B8E700BFD46B0020B8
:1089B000345B0500D4570500346B002000F8FFFF3E
:1089C0009DF85BC09DF85A109DF83F909DF83E00C1
:1089D0009DF843809DF842209DF849E09DF848703D
:1089E00001EB0C2144F6425C00EB092002EB08226B
:1089F00007EB0E276345C4E90402C4E906717FF45E
:108A00004BAE00283FF448AE002A3FF445AE002F9D
:108A10003FF442AEC0F12F034FEA530CC2F12F02D4
:108A2000DB034FEA520158BF0CF1410C42F34F02F5
:108A300054BF0FFA8CF34123002AA8BFAA3108EED5
:108A4000103AACBF8BB2AA232F2828BF2F20079340
:108A5000430083461846039328F0D8F9A062002803
:108A600001F03B80082F40F2A383102FD4E9043299
:108A7000B4F9061000F0918703FB07F38A4203F173
:108A80001F0388BF511A4FEA53138CBF09B200214C
:108A90009B009BB28A422384069140F2A4820FFA83
:108AA0008BF2194608EE902A069B0DF12C0862897C
:108AB000284603FB012114F023FC4FF0000B012298
:108AC0004146284614F00AFB012201284146284667
:108AD0000CBF9DF82C904FF0FF3914F0FFFA0122E3
:108AE0000128414628460CBF9DF82C704FF0FF37F7
:108AF00014F0F4FA012808BF9DF82C30A2690EBFCB
:108B00009A46FF234FF0FF3A202A06D10122414620
:108B10002846059314F0E2FA059B2279002A00F01A
:108B200001824FEA4919C7F3421209F4F859FF02CA
:108B300049EA020907F4FC27A26A03F0F80349EAAC
:108B400007073B4322F80B30039B0BF1020B9B45BD
:108B5000B5D1636901210091591E079B276819440B
:108B6000069BC91A18EE100A18EE903A09B2B847D7
:108B7000069A636901329342069240F23482218C54
:108B8000134694E79DF85BC09DF85A109DF83F90FE
:108B90009DF83E009DF843809DF842209DF849E0F5
:108BA0009DF8487001EB0C2144F6425C00EB092073
:108BB00002EB082207EB0E276345C4E90402C4E96F
:108BC00006717FF4E4AD00283FF4E1AD002A3FF4E4
:108BD000DEAD002F3FF4DBADC0F12F034FEA530CA5
:108BE000C2F12F02DB034FEA520158BF0CF1410CD6
:108BF00042F34F0254BF0FFA8CF34123002AA8BF5F
:108C0000AA3108EE103AACBF8BB2AA232F2828BF96
:108C10002F200693430083461846039328F0F6F866
:108C2000A062002800F06D87082F40F2E181102F2C
:108C3000D4E9043200F0C985B4F9061003FB07F348
:108C40008A4203F11F0388BF511A4FEA53138CBFA6
:108C500009B200219B009BB28A422384059140F215
:108C6000BA810FFA8BF2194608EE902A059B0DF196
:108C70002C086289284603FB012114F041FB4FF0C8
:108C8000000B01224146284614F028FA012201284F
:108C9000414628460CBF9DF82C904FF0FF3914F048
:108CA0001DFA01220128414628460CBF9DF82C7070
:108CB0004FF0FF3714F012FA012808BF9DF82C304E
:108CC000A2690EBF9A46FF234FF0FF3A202A06D131
:108CD000012241462846049314F000FA049B2279AD
:108CE000002A00F009814FEA4919C7F3421209F43A
:108CF000F859FF0249EA020907F4FC27A26A03F0C7
:108D0000F80349EA07073B4322F80B30039B0BF1BA
:108D1000020B9B45B5D1636901210091591E069B49
:108D200027681944059BC91A18EE100A18EE903AE4
:108D300009B2B847059A636901329342059240F23D
:108D40004A81218C134694E79DF85BC09DF85A0038
:108D50009DF83FA09DF83E109DF843809DF842206D
:108D60009DF849E09DF8487000EB0C2044F6425C09
:108D700001EB0A2102EB082207EB0E276345C4E949
:108D80000412C4E906707EF49CAF00293EF499AF4A
:108D9000002A3EF496AF002F3EF493AFC1F12F03AB
:108DA0004FEA530CC2F12F02DB034FEA520058BFC7
:108DB0000CF1410C42F34F0254BF0FFA8CF34123E4
:108DC000002AA8BFAA3008EE103AACBF83B2AA238B
:108DD0002F2928BF2F2109934B001846079106938E
:108DE00028F014F8A062002800F09286082F40F2C4
:108DF000BD82102FD4E90432B4F9061000F0728459
:108E000003FB07F38A4203F11F0388BF511A4FEA9D
:108E100053138CBF09B200219B009BB28A4223846A
:108E2000089140F2D080BDF91C20194608EE902A26
:108E3000089B0DF12C086289284603FB012114F0E0
:108E40005FFA4FF0000B18E04FEA4919C7F34212DE
:108E500009F4F859FF0249EA020907F4FC2703F074
:108E6000F80349EA0707A26A3B4322F80B30069B46
:108E70000BF1020B5B4500F083800122414628463E
:108E800014F02CF901220128414628460CBF9DF818
:108E90002C904FF0FF3914F021F9012201284146AE
:108EA00028460CBF9DF82C704FF0FF3714F016F9D0
:108EB000012808BF9DF82C30A2690EBF9A46FF23F7
:108EC0004FF0FF3A202A06D1012241462846079357
:108ED00014F004F9079B2279002AB5D1B34AFB00AC
:108EE00003F4FC63C9F3C40902EA0A2A43EA09034A
:108EF000A26A43EA0A03B8E7AC4AFB0003F4FC6346
:108F0000C9F3C40902EA0A2A43EA0903A26A43EA46
:108F10000A0322F80B30039B0BF1020B5B457FF435
:108F2000B0AEF8E6A14AFB0003F4FC63C9F3C40940
:108F300002EA0A2A43EA0903A26A43EA0A0322F878
:108F40000B30039B0BF1020B5B457FF4B8AD00E6E1
:108F5000636901210091591E089B27681944079BEA
:108F6000C91A18EE100A18EE903A09B2B847079AD3
:108F700063690132934207921DD9218C1346B3E4F1
:108F8000636901210091591E099B27681944089BB8
:108F9000C91A18EE100A18EE903A09B2B847089AA2
:108FA00063690132934208920DD9218C134642E73E
:108FB000606A27F033FFA06A27F030FFFEF7F5BEA6
:108FC000606A27F02BFFA06A27F028FFFEF779BE22
:108FD000606A27F023FFA06A27F020FFFFF7D7BBC6
:108FE000606A27F01BFFA06A27F018FFFFF754BB49
:108FF000E769780027F00AFF6062002800F07A85B0
:109000001FB9A26901239340E3613621284614F079
:1090100077F9E369002B49D00027CDF814B0B946A1
:10902000A3460DF12C083C4601224146284614F087
:1090300055F801220128414628460CBF9DF82C70A6
:109040004FF0FF3714F04AF8012201284146284624
:109050000CBF9DF82CA04FF0FF3A14F03FF8012808
:109060000CBF9DF82C304FF0FF33012241462846BB
:10907000039314F033F8039ADBF81C004FEACA0399
:1090800003F4FC63C7F3C40709F10109D1100FFA17
:1090900089F9DBF824203B4343EAC123814522F8C8
:1090A00014304C46C0D35C46DDF814B0A269B4F964
:1090B0000600D4E9043103FB02F31F335B094FF0D0
:1090C000010808FA02F89B009BB208F1FF388142C0
:1090D0004FF008072384B7FBF2F25FFA88F8039297
:1090E00000F2D6840022914691427FF671AF0FFACA
:1090F0008BF208EE902A1946CDF814904B466289FF
:10910000284601FB032114F0FBF84FF0000C049FEC
:10911000E146E246BCF1000F4FF001020BA92846E0
:109120000ADC13F0DBFF012808BF9DF82C70DDF886
:109130000CC018BF4FF0FF37A369626A21799F40C6
:1091400047F3072303EA08030AF1010A0CF1FF3C85
:1091500032F813300FFA8AFA0FFA8CFC3FB209B1D9
:109160005BBA9BB2A26AD34522F81930D146D1D856
:109170006369BDF81490049701210091591E069B64
:1091800027681944A1EB090118EE903A18EE100A6D
:1091900009B2B84709F1010963690FFA89F29A42E5
:1091A0000592BFF415AF218C1346A8E700F8FFFF26
:1091B000E769780027F02AFE6062002800F07F84CB
:1091C0001FB9A26901239340E3613621284614F0B8
:1091D00097F8E369002B49D00027CDF818B0B946BD
:1091E000A3460DF12C083C4601224146284613F0C7
:1091F00075FF01220128414628460CBF9DF82C70BE
:109200004FF0FF3713F06AFF01220128414628463C
:109210000CBF9DF82CA04FF0FF3A13F05FFF012820
:109220000CBF9DF82C304FF0FF33012241462846F9
:10923000039313F053FF039ADBF81C004FEACA03B1
:1092400003F4FC63C7F3C40709F10109D1100FFA55
:1092500089F9DBF824203B4343EAC123814522F806
:1092600014304C46C0D35C46DDF818B0A269B4F99E
:109270000600D4E9043103FB02F31F335B094FF00E
:10928000010808FA02F89B009BB208F1FF388142FE
:109290004FF008072384B7FBF2F25FFA88F80392D5
:1092A00000F201840022924691427FF699AE0FFAB5
:1092B0008BF208EE902A1946CDF818A05346628921
:1092C000284601FB032114F01BF84FF0000C059F0A
:1092D000E246E146BCF1000F4FF001020BA928461F
:1092E0000ADC13F0FBFE012808BF9DF82C70DDF8A6
:1092F0000CC018BF4FF0FF37A369626A21799F4005
:1093000047F3072303EA080309F101090CF1FF3CC5
:1093100032F813300FFA89F90FFA8CFC3FB209B119
:109320005BBA9BB2A26ACB4522F81A30CA46D1D8A2
:109330006369BDF818A0059701210091591E079B8C
:1093400027681944A1EB0A0118EE903A18EE100AAA
:1093500009B2B8470AF1010A63690FFA8AF29A4220
:109360000692BFF43DAE218C1346A8E7E76978006A
:1093700027F04CFD6062002800F0B6831FB9A26997
:1093800001239340E3613621284613F0B9FFE369D6
:10939000002B49D00027CDF82090BB46A1460DF107
:1093A0002C083C4601224146284613F097FE012234
:1093B0000128414628460CBF9DF82C704FF0FF371E
:1093C00013F08CFE01220128414628460CBF9DF86F
:1093D0002CA04FF0FF3A13F081FE01280CBF9DF83E
:1093E0002C304FF0FF33012241462846069313F0FC
:1093F00075FE069AD9F81C004FEACA0303F4FC6311
:10940000C7F3C4070BF1010BD1100FFA8BFBD9F88E
:1094100024203B4343EAC123834522F814305C46B1
:10942000C0D34C46DDF82090A269B4F90600D4E917
:10943000043103FB02F31F335B094FF0010A0AFA00
:1094400002FA9B009BB20AF1FF3A81424FF00807F3
:109450002384B7FBF2F25FFA8AFA069200F21383D2
:109460000022934691427FF6ABADDDF81C80CDF82B
:109470001CB00FFA88F208EE902A19465B46628902
:10948000284601FB032113F03BFF4FF0000CE3469D
:109490006746BCF1000F4FF001020BA928460ADC19
:1094A00013F01CFE012808BF9DF82C90DDF818C0B1
:1094B00018BF4FF0FF39A369626A217909FA03F9ED
:1094C00049F3072303EA0A0301370CF1FF3C32F8A2
:1094D00013303FB20FFA8CFC0FFA89F909B15BBA6D
:1094E0009BB2A26AB84522F81B30BB46D1D863694B
:1094F000BDF81CB001210091591E099B2768194431
:10950000A1EB0B0118EE903A18EE100A09B2B84719
:109510000BF1010B63690FFA8BF29A420792BFF4C9
:109520004FAD218C1346AAE7E769780027F06EFC5F
:109530006062002800F0BD821FB9A2690123934038
:10954000E3613621284613F0DBFEE369002B49D0A6
:109550000027CDF81CB0B946A3460DF12C083C46B7
:1095600001224146284613F0B9FD01220128414657
:1095700028460CBF9DF82C704FF0FF3713F0AEFD5E
:1095800001220128414628460CBF9DF82CA04FF02F
:10959000FF3A13F0A3FD01280CBF9DF82C304FF0CB
:1095A000FF33012241462846069313F097FD069AA1
:1095B000DBF81C004FEACA0303F4FC63C7F3C407DB
:1095C00009F10109D1100FFA89F9DBF824203B4396
:1095D00043EAC123814522F814304C46C0D35C468F
:1095E000DDF81CB0A269B4F90600D4E9043103FB2C
:1095F00002F31F335B094FF0010808FA02F89B00E1
:109600009BB208F1FF3881424FF008072384B7FB73
:10961000F2F25FFA88F8069200F240820022924647
:1096200091427FF6C5AC0FFA8BF208EE902A1946EC
:10963000CDF81CA053466289284601FB032113F094
:109640005FFE4FF0000C039FE246E146BCF1000FC5
:109650004FF001020BA928460ADC13F03FFD012858
:1096600008BF9DF82C70DDF818C018BF4FF0FF3709
:10967000A369626A21799F4047F3072303EA08033D
:1096800009F101090CF1FF3C32F813300FFA89F9A6
:109690000FFA8CFC3FB209B15BBA9BB2A26ACB4510
:1096A00022F81A30CA46D1D86369BDF81CA00397C6
:1096B00001210091591E089B27681944A1EB0A015A
:1096C00018EE903A18EE100A09B2B8470AF1010AEA
:1096D00063690FFA8AF29A420792BFF469AC218C4F
:1096E0001346A8E71B01079FC3481F338A424FEA6E
:1096F000531388BFA2EB010B4FEA83034FF00A021A
:10970000394623848CBF0FFA8BFB4FF0000B21F0FE
:1097100055FC63699B45BFF456AC3BB208EE903AEA
:10972000DDF81890CDF818B00DF12C08218C638964
:10973000069A284602FB013113F0E2FD002704E0FF
:10974000A26AD3530237B94528D0012241462846A0
:1097500013F0C4FC012808BF9DF82CA041464FF02F
:10976000010228460EBFD3464FF0FF3B4FF0FF0AE1
:1097700013F0B4FC012808BF9DF82C30227916BFE5
:10978000FF2319464FF0FF3143EA0B23002AD7D1BC
:10979000A26A4AEA012A22F807A0D3E763690121F5
:1097A0000091591E099B27681944069BC91A18EE97
:1097B000100A18EE903A09B2B847069A6369013266
:1097C00093420692B2D8FFF7FEBBB4F906908A48DE
:1097D0001B011F334A454FEA531388BFA2EB090907
:1097E0004FEA83034FF00A02594623848CBF0FFAD5
:1097F00089F94FF0000921F0E1FB63694B457FF6E1
:10980000EAAB0FFA8BF308EE903ADDF80CA0CDF836
:109810000C900DF12C08218C6389039A284602FBD9
:10982000013113F06DFD002704E0A26AD353023723
:10983000BA4528D001224146284613F04FFC0128A2
:1098400008BF9DF82C9041464FF0010228460EBFFC
:10985000CB464FF0FF3B4FF0FF0913F03FFC0128D0
:1098600008BF9DF82C30227916BFFF2319464FF010
:10987000FF3143EA0B23002AD7D1A26A49EA012922
:1098800022F80790D3E7636901210091591E069BD6
:1098900027681944039BC91A18EE100A18EE903A6B
:1098A00009B2B847039A6369013293420392B2D86E
:1098B000FFF791BB1B011F338A424FEA531388BF46
:1098C000A2EB01094FEA83034B4823844FF00A02BD
:1098D00059468CBF0FFA89F94FF0000921F06EFB51
:1098E00063694B457FF667AB0FFA8BF308EE903A4E
:1098F000DDF818A0CDF80C900DF12C08218C6389AF
:10990000039A284602FB013113F0FAFC002704E019
:10991000A26AD3530237BA4528D0012241462846CD
:1099200013F0DCFB012808BF9DF82C9041464FF056
:10993000010228460EBFCB464FF0FF3B4FF0FF0918
:1099400013F0CCFB012808BF9DF82C30227916BFFC
:10995000FF2319464FF0FF3143EA0B23002AD7D1EA
:10996000A26A49EA012922F80790D3E76369012135
:109970000091591E089B27681944039BC91A18EEC9
:10998000100A18EE903A09B2B847039A6369013297
:1099900093420392B2D8FFF70EBB1B011F338A42DA
:1099A0004FEA531388BFA2EB01094FEA8303124821
:1099B00023844FF00A0259468CBF0FFA89F94FF001
:1099C000000921F0FBFA63694B457FF60CAB0FFAF7
:1099D0008BF308EE903ADDF80CA0CDF80C900DF169
:1099E0002C08218C6389039A284602FB013113F06D
:1099F00087FC002707E000BF3C760020A26AD35313
:109A00000237BA4528D001224146284613F066FBAA
:109A1000012808BF9DF82C9041464FF001022846CE
:109A20000EBFCB464FF0FF3B4FF0FF0913F056FB44
:109A3000012808BF9DF82C30227916BFFF23194654
:109A40004FF0FF3143EA0B23002AD7D1A26A49EA3B
:109A5000012922F80790D3E7636901210091591E7B
:109A6000079B27681944039BC91A18EE100A18EEC1
:109A7000903A09B2B847039A63690132934203925C
:109A8000AFD8FFF7B0BA081A0FFA80FB5A46E9E4DC
:109A9000081A0FFA80F94A46FFF726BB081A0FFA90
:109AA00080FA5246BCE5081A0FFA80FA5246FFF7D0
:109AB000FBBB1B491B4821F0DBF8E7693CE5184973
:109AC000184821F0D5F8E769FFF77ABB1649154821
:109AD00021F0CEF8A769FEF7E2BE1349114821F044
:109AE000C7F8A769FEF7BEBF0D490E4821F0C0F8C0
:109AF000E76943E40A490B4821F0BAF8E769FFF740
:109B00007FBA0949074821F0B3F8A769FFF78CB875
:109B10000549044821F0ACF8A769FFF767B900BF11
:109B2000645505003C7600204C55050070B52C4C62
:109B30002C4EFEF705F820682B4B8361C66102218D
:109B40001AF0C6FC294B186826F030FD41EC100BCA
:109B50002068012121F05CF82068254921F02AF8CD
:109B60002068244A244B8261C36101211AF0B0FCB1
:109B7000224B186826F01AFD41EC100B20680121D9
:109B800021F046F820681E4921F014F81D4B186892
:109B900026F00CFD41EC100B2068012121F038F873
:109BA0002568194B194AAA611868EE6126F0FEFC77
:109BB00041EC100B2846012121F02AF820681449B5
:109BC00020F0F8FF2068134B134A196882610A22BB
:109BD00021F026FA20681149BDE8704020F0EABF64
:109BE000D46B0020E007E0078000B0003C6D00204F
:109BF000DC5705008200C30020FD20FD446D0020DD
:109C0000E0570500406D0020AC6D00208200D000C0
:109C1000E4570500D86B00208200DC00E8570500FF
:109C20002DE9F041544E554CB568022D84B036D91B
:109C3000206803685B6F9847206800211AF096FB44
:109C400010214F4820F098FE4D4820F04BFE4C4824
:109C50000A2120F075FE4A48002120F085FE484880
:109C60004FF4807120F07AFE464B45481A88102147
:109C700000236D0820F0F0FEC5EBC5052068022129
:109C80001AF026FC20686B00C3F178034FF0FF3513
:109C9000462231460383C561428320F067FF3A4E76
:109CA0002068B368394F3A4DDFF804815B08C3EB95
:109CB000C3035B00C3F1780303837323438302214F
:109CC0001AF006FC31462068324E20F04FFF324831
:109CD0000F22002118F04CF9002201212E4818F023
:109CE00047F92D4818F06CF92C481CF057FE03E09A
:109CF0001CF09EFE002831D128461CF0C9FC3B78A0
:109D0000314601A8CBB121F025FA01A9404621F046
:109D10008FFB044601A821F0B9FA002C204901A8C4
:109D200016DA21F017FA01A9404621F081FB04461A
:109D300001A821F0ABFA002C0ADA28461CF010FC2E
:109D400004461648002CD3D01649174821F046F88F
:109D5000164B00221A7004B0BDE8F08121460E486F
:109D60000F2218F005F90C482246012118F000F9DD
:109D7000094818F025F9BFE7AC660020D46B002035
:109D80000499002018600020206C0020D466002078
:109D9000F0630020EC570500E8660020386C0020D6
:109DA000F4570500FC570500B0650020DC6B00206F
:109DB0009C66002070B5274C274E2068274D03680D
:109DC0005B6F984720684FF6FF711AF0CFFA1021A9
:109DD000234820F0D1FD224820F084FD20480A21AC
:109DE00020F0AEFD1E48002120F0BEFD1C484FF4BF
:109DF000807120F0B3FD0023FA221021184820F0D2
:109E00002BFE30461CF0CAFD02E01CF0A9FBA8B9ED
:109E100028461CF03DFC30461CF00AFE044628464D
:109E2000002CF2D00C481CF061FD0E4B0E490F487F
:109E30000022BDE870401A7020F0D0BF094B0648E0
:109E40001C701CF053FDBDE870400749074820F026
:109E5000C5BF00BFD46B0020A86B0020C0630020EA
:109E6000049900207D6C00200C5805003C760020F1
:109E70002DE9F0414D4F386803685B6F98473868AB
:109E800000211AF073FA0121102020F089FC4848C3
:109E90001CF084FD386803211AF01AFB3868454B22
:109EA00083614FF0FF33C361434920F083FE38687C
:109EB00005211AF00DFB3B68404A9A616FF01F12B2
:109EC000DA6116F0D9FA092803DC3D49386820F038
:109ED00071FE3C6816F0D0FA0A220146204621F0B5
:109EE0009FF83849386820F065FE16F0DDFA092839
:109EF00003DC3349386820F05DFE3C68324D334E58
:109F000016F0D2FA0A220146204621F089F8304C98
:109F100012E028461CF024FB034620468BBB1CF0B5
:109F20001FFB0346304663BB1CF01AFB034629485F
:109F30003BBB1CF015FB20BB28461CF0A9FB2046B0
:109F40001CF0A6FB30461CF0A3FB22481CF0A0FB33
:109F500017481CF06DFD0028DBD01F48532200215C
:109F600018F006F8002201211B4818F001F81A48E1
:109F700018F026F828461CF0F3FA03462046002B7A
:109F8000CDD00B481CF0B2FC0021102020F008FCC2
:109F9000386801211AF09CFA386800211AF0E6F9B5
:109FA00038680368BDE8F0419B6F1847D46B002008
:109FB000386C00204B001E00545605002D005A003E
:109FC000DC9F050098580500F0630020C063002066
:109FD000D863002008640020E866002008B501214D
:109FE000102020F059FB0121292020F055FB0121F0
:109FF0001B2020F051FB0121242020F04DFB0121EA
:10A00000252020F049FB00212B2020F045FB0021DA
:10A01000072020F041FB0021022020F03DFB002121
:10A02000032020F039FB0021262020F035FB002101
:10A030002A2020F031FB0021222020F02DFB0021DE
:10A04000052020F029FB0021102020F0A9FB002191
:10A05000292020F0A5FB00211B2020F0A1FB0021DE
:10A06000242020F09DFB0021252020F099FB4FF4B7
:10A07000FA601CF0A7FE55494FF4817207201CF0CE
:10A080004FFD53494FF4817202201CF049FD5149A4
:10A090004FF4817226201CF043FD4F494FF481722A
:10A0A0002A201CF03DFD4D494FF4817222201CF006
:10A0B00037FD4B494FF4817205201CF031FD4FF400
:10A0C000827248492B201CF02BFD0121292020F011
:10A0D00067FB01211B2020F063FB0121242020F0DD
:10A0E0005FFB0121252020F05BFB4FF47A701CF010
:10A0F00069FE10213C4820F03FFC3B4820F0F2FB79
:10A1000039480A2120F01CFC3748002120F02CFCA3
:10A1100035484FF4807120F021FC0023FA221021F1
:10A12000314820F099FC314832211CF0FDF92F48CC
:10A130004FF416711CF0FAF92C4800211CF0F8F9C4
:10A140002A4800211CF006FA294832211CF0ECF9BB
:10A1500027484FF416711CF0E9F9254800211CF03E
:10A16000E7F9234800211CF0F5F9224832211CF0C0
:10A17000DBF920484FF416711CF0D8F91D48002176
:10A180001CF0D6F91B4800211CF0E4F91A483221D2
:10A190001CF0CAF918484FF416711CF0C7F916489C
:10A1A00000211CF0C5F9144800211CF0D3F920F05F
:10A1B00043F9124B186018B9114B01221A7008BDEF
:10A1C0000128FCD10E4B00221A7008BDED6202007E
:10A1D000FD6202004D6302005963020065630200E4
:10A1E00071630200F162020004990020F063002014
:10A1F000D863002008640020C0630020306C002079
:10A20000CC66002070B53D4D3D4C82B0012200214E
:10A21000284615F0FFF83B4B3B4A3C480093002191
:10A220003B4B08F07DFE3B4B3B4A384800930021F6
:10A230003A4B08F08FFE281D15F0CCFA0646281D73
:10A2400015F0C2FA00FB06F04FF40073420A002139
:10A250002E4808F06FFE002101222C4808F072FE03
:10A260002A4808F081FE04F23C40256012F034FEDA
:10A270002046012114F07AFD002838D0284EA6F29D
:10A280003C41304612F00CFF48BB2548256012F0D7
:10A2900023FE1B48012114F069FD90B1204DA5F269
:10A2A0003C41284612F0FCFE88B194F83C3413F08F
:10A2B000700F0CD01B4B1D601B4B01221A7002B09B
:10A2C00070BD01460E4814F051FD0028E6D1174B31
:10A2D00001221A70144B01221A7002B070BD94F85A
:10A2E0003C3413F0700F1CBF0E4B1E60CDE70146CF
:10A2F000204614F03BFD0028C0D1C6E7806B00204B
:10A30000F8660020385805002C580500586D0020CC
:10A310001C580500896402000D6402002D640200CF
:10A32000346B002030930020B8660020A46B00201E
:10A3300010B5204C206803680021DB68984720682E
:10A3400000211AF013F820681B496FF01F13C36136
:10A350001AF0CAF8206801211AF0BAF82068174BE1
:10A360008361174920F026FC4FF4FA601CF02AFDA7
:10A370002068002119F0FAFF206800211AF0B4F8D3
:10A38000206802211AF0A4F820680E4B83610E4960
:10A3900020F010FC0D4820F0CDFA2068002119F0C3
:10A3A000E5FF206803689B6F9847BDE810401420C4
:10A3B0001CF008BDD46B00203C68050035008A0005
:10A3C0003C580500380082004458050004990020DC
:10A3D00010B55F495F48604C8EB012F07FFF0023DC
:10A3E0004FF47A71ADF814300293039144F20223D2
:10A3F0005A4A5849019405A812F0D8FD9DF8143026
:10A400000BB90EB010BD5649564C01A820F0D2FB36
:10A41000554B0A22196801A820F002FE534901A8F1
:10A4200020F0C8FB524901A820F0C4FB514B0A227E
:10A43000196801A820F0F4FD4C4901A820F0BAFBEE
:10A440004D4901A820F0B6FB4C4B0A22197801A80F
:10A4500020F0E6FD454901A820F0ACFB484901A8E1
:10A4600020F0A8FB474B0A22196801A820F0D8FD6C
:10A470003E4901A820F09EFB434901A820F09AFB29
:10A48000424B0A22196801A820F0CAFD374901A8E9
:10A4900020F090FB3E4901A820F08CFB3D4B0A22A6
:10A4A000196801A820F0BCFD304901A820F082FB0A
:10A4B00023783BB901A820F02BFC05A812F00CFD75
:10A4C0000EB010BD344901A820F074FB0A22217897
:10A4D00001A820F0A5FD254901A820F06BFB2F491C
:10A4E00001A820F067FB2E4B0A22196801A820F072
:10A4F00051FD1E4901A820F05DFB2A4901A820F06A
:10A5000059FB294B0A22196801A820F043FD17497D
:10A5100001A820F04FFB254901A820F04BFB244B5C
:10A520000A22196801A820F035FD104901A820F081
:10A5300041FB204901A820F03DFB1F4B0A2219686E
:10A5400001A820F027FD094901A820F033FBB1E75D
:10A5500050580500346B0020345B0500605805003E
:10A56000705805007C6C00206864002020560500AF
:10A570007C5805006C6400208C5805007064002035
:10A580009C58050014600020AC58050004600020B1
:10A59000C058050018600020D4580500E458050094
:10A5A0002C6D0020F05805002C6C0020005905008F
:10A5B000346D002010590500306D0020F8B5284E8C
:10A5C000284D3068284C294F002119F0CFFE306803
:10A5D000022119F07DFF3068254B83614FF01F1376
:10A5E0002449C36120F0E6FA3068234BC361234B52
:10A5F0002349836120F0DEFA3068224B22498361CF
:10A6000020F0D8FA02E01BF0ABFFC8B928461CF0D6
:10A610003FF820461CF03CF828461BF0A1FF0346FB
:10A620002046002BEFD0194B194A306800211970D1
:10A63000117019F09BFEBDE8F84016481CF0D4B923
:10A6400001233B70FFF7C4FEFCF724FC124817F00F
:10A65000F3FA64201CF0B6FB1FF0FCFED6E700BF47
:10A66000D46B0020F0630020C06300207C6C0020CD
:10A67000A50032004C560500E007E00736006400F4
:10A68000285905002300B40084560500E16B002022
:10A69000DE6B0020D86600208C6C002000000000DB
:10A6A0002DE9F043BF4BC04CC0498BB0002607A832
:10A6B0001E7020F04FFD07A9204620F0B9FE054688
:10A6C00007A820F0E3FDB54258DB0C230822214601
:10A6D00007A820F0D1FE07A820F074FF814607A844
:10A6E00020F0D4FD0F230D22214607A820F0C4FE40
:10A6F00007A820F067FF804607A820F0C7FD1223B7
:10A700001022214607A820F0B7FE07A820F05AFF24
:10A71000074607A820F0BAFD15231322214607A8F3
:10A7200020F0AAFE07A820F04DFF054607A820F05C
:10A73000ADFD18231622214607A820F09DFE07A88C
:10A7400020F040FF064607A820F0A0FD21461B236D
:10A75000192207A820F090FE07A820F033FF0390ED
:10A7600007A820F093FDCDE90089039A3B463146C6
:10A77000284615F02BFF0BB0BDE8F0838C4907A8E5
:10A7800020F0E8FC07A9204620F052FE054607A865
:10A7900020F07CFD002DC0F2ED80864A864D1378B6
:10A7A00086490133012707A813702F7020F0D2FCCF
:10A7B00007A9204620F03CFE3146C219204620F071
:10A7C00089FE07A820F062FD04AD204620F0D0FEEF
:10A7D0007A49284620F0BEFC2946204620F028FE73
:10A7E00021460346324607A820F046FE07A820F07F
:10A7F000E9FE734B024607A81A6020F047FD284681
:10A8000020F044FD6D4907A820F0A4FC07A92046CC
:10A8100020F00EFE3146C219204620F05BFE07A84C
:10A8200020F034FD204620F0A3FE6449284620F0A5
:10A8300091FC2946204620F0FBFD32460346214686
:10A8400007A820F019FE07A95E4820F027FD07A8F9
:10A8500020F01CFD284620F019FD5B4907A820F0D8
:10A8600079FC07A9574820F0E3FD044607A820F02B
:10A870000DFD002C6CDB554B1F70504907A820F0D4
:10A8800069FC07A9484820F0D3FD0021421C464836
:10A8900020F020FE07A820F0F9FC434820F068FED5
:10A8A0004649284620F056FC29463F4820F0C0FD86
:10A8B000002203463C4907A820F0DEFD07A94448D2
:10A8C00020F0ECFC07A820F0E1FC284620F0DEFC9C
:10A8D0003A4907A820F03EFC07A9334820F0A8FD1C
:10A8E0000021421C304820F0F5FD07A820F0CEFCE6
:10A8F0002D4820F03DFE3149284620F02BFC29460A
:10A90000294820F095FD00220346274907A820F09A
:10A91000B3FD07A92F4820F0C1FC07A820F0B6FC22
:10A92000284620F0B3FC2C480F22002117F020FB12
:10A9300029483422012117F01BFB0022022126485E
:10A9400017F016FB244817F03BFB0BB0BDE8F08373
:10A95000224907A820F0FEFB07A91A4820F068FD4D
:10A96000044607A820F092FC002C3BDB174B022288
:10A970001A7082E71A4907A820F0ECFB07A92046C5
:10A9800020F056FD054607A820F080FC002D3CDB9A
:10A9900008490E4A084B0E7016701E700BB0BDE8C9
:10A9A000F08300BFD46600209C6600203459050067
:10A9B0003C590500F16B00201D6C0020505A050029
:10A9C000F46B0020206D002044590500F26B00203C
:10A9D0004C6D0020806C0020E86600205059050076
:10A9E00068590500BC4907A820F0B4FB07A9BB487B
:10A9F00020F01EFD044607A820F048FC002CC0F201
:10AA00000E82B74B03221A7037E7B64907A820F029
:10AA1000A1FB07A9204620F00BFD054607A820F062
:10AA200035FC002D6CDBB04907A820F093FB07A98B
:10AA3000204620F0FDFC054607A820F027FC002D4D
:10AA4000FFF699AEA94BAA49012507A81D7020F071
:10AA500081FB082207A9204620F0FCFC3146024673
:10AA6000204620F037FD07A820F010FC204620F0FB
:10AA70007FFD9F4904A820F06DFB04A90222204617
:10AA800020F0E8FC2A460346214607A820F0F4FC03
:10AA900007A9984820F002FC07A820F0F7FB04A8BB
:10AAA00020F0F4FB924907A820F054FB022207A9EA
:10AAB000204620F0CFFC31460246204620F00AFD19
:10AAC00007A820F0E3FB204620F052FD884904A8A7
:10AAD00020F040FB04A90222204620F0BBFC2146C6
:10AAE00003462A4607A820F0C7FC834807A920F0A0
:10AAF000D5FB07A820F0CAFB04A820F0C7FB3AE664
:10AB00007E4907A820F026FB07A9204620F090FCEC
:10AB1000054607A820F0BAFB002DC0F2FF800B23EA
:10AB20000822214607A820F0A7FC07A820F04AFD2C
:10AB300025F02AFD66A3D3E9002325F0D7FB26F0F4
:10AB40006FF86F4B6F4D186007A820F09FFB0F2325
:10AB50000C22214607A820F08FFC07A820F032FD28
:10AB600025F012FD5AA3D3E9002325F0BFFB26F000
:10AB700057F8034607A82B6020F088FB1323102208
:10AB8000214607A820F078FC07A820F01BFD25F03F
:10AB9000FBFC4FA3D3E9002325F0A8FB26F040F8E7
:10ABA000594B024607A81A6020F070FB2146162375
:10ABB000142207A820F060FC07A820F003FD534BE7
:10ABC000024607A81A6020F061FB494907A820F057
:10ABD000C1FA07A91422204620F03CFC3146024667
:10ABE000204620F077FC07A820F050FB204620F0FC
:10ABF000BFFC3F4904A820F0ADFA04A90222204678
:10AC000020F028FC21460346012207A820F034FC4E
:10AC100007A820F0D7FC3E4B024607A81A6020F098
:10AC200035FB04A820F032FB314907A820F092FA46
:10AC300007A90222204620F00DFC3146024620469C
:10AC400020F048FC07A820F021FB204620F090FCD3
:10AC5000274904A820F07EFA04A90122204620F00A
:10AC6000F9FB01222146034607A820F005FC07A8AE
:10AC700020F0AEFC274B07A883ED000A20F006FB6E
:10AC800004A820F003FB1A4907A820F063FA07A9DB
:10AC90000122204620F0DEFB31460246204620F00D
:10ACA00019FC07A820F0F2FA204620F061FCA36806
:10ACB0002146012207A820F0DFFB07A9164820F053
:10ACC000EDFA07A820F0E2FA55E500BFAFF30080E7
:10ACD000666666666612714058590500206D002050
:10ACE000F26B00206C59050074590500DC6B0020E4
:10ACF000505A0500AC660020206C00207C590500ED
:10AD00003C6D0020446D0020406D00200C60002050
:10AD1000D86B0020AC6D0020E46B0020884907A8A8
:10AD200020F018FA07A9204620F082FB054607A864
:10AD300020F0ACFA002DC0F28580824907A820F0EF
:10AD400009FA082207A9204620F084FB3146024672
:10AD5000204620F0BFFB07A820F098FA04AD20465B
:10AD600020F006FC7749284620F0F4F92946032212
:10AD7000204620F06FFB01220346214607A820F061
:10AD80007BFB07A9704820F089FA07A820F07EFA1B
:10AD9000284620F07BFA6D4907A820F0DBF907A9C7
:10ADA000694820F045FB044607A820F06FFA002C04
:10ADB000C0F29D80664A674B167001221A70614985
:10ADC00007A820F0C7F907A90222634820F042FB38
:10ADD00000210246604820F07DFB07A820F056FACB
:10ADE0005D4820F0C5FB5749284620F0B3F92946B5
:10ADF0000122594820F02EFB57490346012207A89B
:10AE000020F03AFB07A820F0DDFB544B024607A8D0
:10AE10001A6020F03BFA284620F038FAABE450499B
:10AE200007A820F097F907A94E4820F001FB044637
:10AE300007A820F02BFA002C4B4BACBF05220422B4
:10AE40001A701AE5494907A820F084F907A9204695
:10AE500020F0EEFA054607A820F018FA002D25DBB1
:10AE6000384907A820F076F9032207A9204620F0E8
:10AE7000F1FA31460246204620F02CFB07A820F0CC
:10AE800005FA204620F074FB394904A820F062F945
:10AE900004A90322204620F0DDFA214603460122C0
:10AEA00007A820F0E9FA334807A920E6324907A8A5
:10AEB00020F050F907A9204620F0BAFA054607A865
:10AEC00020F0E4F9002D61DB2C4907A820F042F9BD
:10AED00007A9204620F0ACFA054607A820F0D6F9CD
:10AEE000002DC0F2F580264B01221A7043E425495B
:10AEF00007A820F02FF9144807A920F099FA002894
:10AF000007A808DB124B1B782BB920F0BFF9114BB7
:10AF100002221A7053E720F0B9F91B4907A820F064
:10AF200019F907A9084820F083FA044607A820F079
:10AF3000ADF9002CFFF643AF064B00221A703EE736
:10AF400084590500505A0500006C002090590500F6
:10AF50000C6C0020F96B00209C660020FC6B00202C
:10AF600060590500206D0020F26B0020A8590500F3
:10AF7000B4590500106C0020B8590500C0590500EF
:10AF80007C6B002098590500A05905005A4907A874
:10AF900020F0E0F807A9204620F04AFA054607A865
:10AFA00020F074F9002DFFF6E6AB544907A820F015
:10AFB000D1F807A9204620F03BFA3146421C204632
:10AFC00020F088FA07A820F061F9204620F0D0FA96
:10AFD0004B4907A820F0BEF807A9204620F028FA20
:10AFE000044607A820F052F9002C02DB454B012251
:10AFF0001A70454907A820F0ADF807A9434820F08A
:10B0000017FA044607A820F041F9002C02DB3D4B5B
:10B0100000221A70394907A820F09CF807A93B487C
:10B0200020F006FA0021421C384820F053FA07A805
:10B0300020F02CF9354820F09BFA304904A820F084
:10B0400089F804A9314820F0F3F930490346002279
:10B0500007A820F011FA07A820F0B4FA2C4B0246FA
:10B0600007A81A6020F012F904A820F00FF923496C
:10B0700007A820F06FF807A9244820F0D9F900218B
:10B08000421C224820F026FA07A820F0FFF81F48AB
:10B0900020F06EFA194904A820F05CF804A91B48B6
:10B0A00020F0C6F919490346002207A820F0E4F968
:10B0B00007A820F087FA174B024607A81A6020F06D
:10B0C000E5F804A820F0E2F8FFF782F9FFF753BB98
:10B0D0000D4907A820F03EF807A9204620F0A8F95E
:10B0E000044607A820F0D2F8002CFFF644AB0A4B28
:10B0F00000221A70FFF73FBBC8590500505A0500DF
:10B10000C059050070640020A05605009C66002010
:10B11000686400206C6400207C6B002070B59AB0DD
:10B120000D490E4D01A820F015F800244FF47A7057
:10B13000CDE90E4023460A4A0A49ADF8444011A819
:10B140000D9511F033FF9DF844306BB901A820F044
:10B150009DF81AB070BD00BF0CCC0500345B050033
:10B1600060580500346B00200DA90AA81FF0BEFF2F
:10B170000AA901A820F092F80AA820F087F8B4499B
:10B18000B44E04A81FF0E6FF04A901A820F050F96E
:10B19000B149054607A81FF0DDFF07A901A820F067
:10B1A00047F901A903466A1C0AA820F065F90AA814
:10B1B00020F008FAA94B02460AA81A6020F066F8A7
:10B1C00007A820F063F804A820F060F8A2490AA8B4
:10B1D0001FF0C0FF0AA901A820F02AF92146421C4D
:10B1E00001A820F077F90AA820F050F801A820F073
:10B1F000BFF9974904A81FF0ADFF04A901A820F0EA
:10B2000017F99549054607A81FF0A4FF07A901A84B
:10B2100020F00EF901A903466A1C0AA820F02CF9B7
:10B220000AA820F0CFF98E4B02460AA81A6020F037
:10B230002DF807A820F02AF804A820F027F886495E
:10B240000AA81FF087FF0AA901A820F0F1F82146FB
:10B25000421C01A820F03EF90AA820F017F801A826
:10B2600020F086F97A4904A81FF074FF04A901A808
:10B2700020F0DEF87849054607A81FF06BFF07A904
:10B2800001A820F0D5F801A903466A1C0AA820F0FD
:10B29000F3F80AA820F096F9724A031B18BF01239D
:10B2A0000AA813701FF0F2FF07A81FF0EFFF04A811
:10B2B0001FF0ECFF68490AA81FF04CFF0AA901A87B
:10B2C00020F0B6F82146421C01A820F003F90AA894
:10B2D0001FF0DCFF01A820F04BF95D4904A81FF026
:10B2E00039FF04A901A820F0A3F85B49054607A887
:10B2F0001FF030FF07A901A820F09AF801A9034622
:10B300006A1C0AA820F0B8F80AA820F05BF9564B8E
:10B3100002460AA81A601FF0B9FF07A81FF0B6FF7F
:10B3200004A81FF0B3FF4C490AA81FF013FF0AA995
:10B3300001A820F07DF82146421C01A820F0CAF89F
:10B340000AA81FF0A3FF01A820F012F9404904A8A1
:10B350001FF000FF04A901A820F06AF83E49054645
:10B3600007A81FF0F7FE07A901A820F061F801A9BE
:10B3700003466A1C0AA820F07FF80AA820F022F9E8
:10B380003A4B02460AA81A601FF080FF07A81FF078
:10B390007DFF04A81FF07AFF2F490AA81FF0DAFEEC
:10B3A0000AA901A820F044F82146421C01A820F077
:10B3B00091F80AA81FF06AFF01A820F0D9F82449E3
:10B3C00004A81FF0C7FE04A901A820F031F8224903
:10B3D000054607A81FF0BEFE07A901A820F028F81F
:10B3E00001A903466A1C0AA820F046F80AA820F022
:10B3F000E9F81F4B02460AA81A601FF047FF07A88A
:10B400001FF044FF04A81FF041FF13490AA81FF0D2
:10B41000A1FE0AA901A820F00BF82146421C01A8B0
:10B4200020F058F80AA81FF031FF01A820F0A0F87A
:10B43000074904A81FF08EFE04A901A81FF0F8FF19
:10B440000549054607A81FF085FE07A901A811E0D8
:10B45000985805007C6C0020205605006864002088
:10B460006C640020706400201460002004600020E0
:10B47000186000201FF0DCFF6A1C01A903460AA81F
:10B480001FF0FAFF0AA820F09DF8031B18BF012344
:10B490000AA833701FF0FAFE07A81FF0F7FE04A8F1
:10B4A0001FF0F4FE81490AA81FF054FE0AA901A862
:10B4B0001FF0BEFF2146421C01A820F00BF80AA88D
:10B4C0001FF0E4FE01A820F053F83378002B3FF47E
:10B4D0003DAE7749347004A81FF03CFE04A901A8D2
:10B4E0001FF0A6FF7149054607A81FF033FE07A904
:10B4F00001A81FF09DFF01A903466A1C0AA81FF0BE
:10B50000BBFF0AA820F05EF86A4B02460AA81A6040
:10B510001FF0BCFE07A81FF0B9FE04A81FF0B6FE7E
:10B5200062490AA81FF016FE0AA901A81FF080FFB1
:10B530002146421C01A81FF0CDFF0AA81FF0A6FE5D
:10B5400001A820F015F85A4904A81FF003FE04A929
:10B5500001A81FF06DFF5549054607A81FF0FAFD29
:10B5600007A901A81FF064FF01A903466A1C0AA8E5
:10B570001FF082FF0AA820F025F84F4B02460AA8C8
:10B580001A601FF083FE07A81FF080FE04A81FF0BA
:10B590007DFE46490AA81FF0DDFD0AA901A81FF09B
:10B5A00047FF2146421C01A81FF094FF0AA81FF084
:10B5B0006DFE01A81FF0DCFF3D4904A81FF0CAFD85
:10B5C00004A901A81FF034FF3849054607A81FF059
:10B5D000C1FD07A901A81FF02BFF01A903466A1CA2
:10B5E0000AA81FF049FF0AA81FF0ECFF334B0246E0
:10B5F0000AA81A601FF04AFE07A81FF047FE04A819
:10B600001FF044FE29490AA81FF0A4FD0AA901A8B9
:10B610001FF00EFF2146421C01A81FF05BFF0AA885
:10B620001FF034FE01A81FF0A3FF214904A81FF05A
:10B6300091FD04A901A81FF0FBFE1C49054607A8BF
:10B640001FF088FD07A901A81FF0F2FE01A903461B
:10B650006A1C0AA81FF010FF0AA81FF0B3FF184BBE
:10B6600002460AA81A601FF011FE07A81FF00EFE7E
:10B6700004A81FF00BFE0D490AA81FF06BFD0AA9D4
:10B6800001A81FF0D5FE2146421C01A81FF022FF91
:10B690000AA81FF0FBFD01A81FF06AFFFEF798FE45
:10B6A00001A81FF0F3FD1AB070BD00BF20560500C1
:10B6B000985805002C6D00202C6C0020346D002063
:10B6C000306D00202DE9F047584FDFF8A891386819
:10B6D000D9F80050564CDFF8A08182B0002118F054
:10B6E00045FE3868022118F0F3FE3868514B83613B
:10B6F0004FF0FF335049C3611FF05CFA38684F4B7D
:10B700004F4A83614F49C2611FF054FA3868D9F833
:10B71000001084610A221FF083FC38684A4B4B49B1
:10B7200083611FF047FA3868494B4A4983611FF02B
:10B7300041FA3868484B494983611FF03BFAA246F9
:10B74000474E40461BF074F958BB30461AF0A0FF34
:10B7500044481AF09DFF44481AF09AFF43481AF0F3
:10B7600097FF30461AF0FCFE04463E48002C50D1AC
:10B770001AF0F6FE002836D13B481AF0F1FE0346D7
:10B780003A4803BB1AF0ECFE0028DAD00A35FA2D4D
:10B79000A8BFFA25AAB20023102135481FF05CF992
:10B7A000CEE70E230022CDE90032386824236E2232
:10B7B000A82118F0F5FC38680A22C0F818A029461C
:10B7C0001FF02EFCC1E70A3D0A2DB8BF0A25284804
:10B7D000AAB2002310211FF03FF924481AF0C0FE3E
:10B7E0000028AED0D2E738681B4B83614FF0FF339F
:10B7F0001A49C361C9F800501FF0DCF93B68104AD0
:10B80000DA611021B9F80020194823461FF024F905
:10B81000B2E7B9F800201648002310211FF01CF9E8
:10B8200002B0BDE8F047FCF7E7B800BFD46B0020DA
:10B83000A8006E00C3003200D059050024006E003D
:10B84000E007E007D4590500230032005C560500EC
:10B850002300B40060560500C300B400E0590500A1
:10B86000F0630020D8630020C0630020086400203B
:10B870000499002018600020486C00202DE9F04F4A
:10B8800085B014F041FE064614F06EFE804614F0BA
:10B8900083FEBE4D00218246286818F067FD2868A7
:10B8A000022118F015FE2868B94B83614FF0FF3371
:10B8B000B849C3611FF07EF92868B74AB74BC26127
:10B8C000B74983611FF076F92868B64BB6498361A2
:10B8D0001FF070F92868B54BB54983611FF06AF90C
:10B8E0002868B44B8361B4491FF064F928680321C8
:10B8F00018F0EEFD2868B14AB14B8261092EC36190
:10B9000000F3B081AF491FF055F928680A2231468B
:10B910001FF086FB2868AC496FF01F13C3611FF04E
:10B9200049F9B8F1090F00F39781A64928681FF07B
:10B9300041F928680A2241461FF072FBA249286893
:10B94000DFF89892DFF874B2A04F1FF033F928683F
:10B950000A2251461FF064FB002448461BF068F899
:10B9600038B1002C37D0012C00F0A680022C00F05A
:10B97000378138461AF08CFE95481AF089FE9548B2
:10B980001AF086FE94481AF083FE38461AF0E8FD55
:10B99000002840F0CD808E481AF0E2FD002851D0FA
:10B9A0000134022C8B485DDD1AF0DAFD18B1013E3E
:10B9B000002E40F3B58088481AF0D2FD18B1013648
:10B9C0001F2E00F3B380484600241BF031F80028F6
:10B9D000CFD0002CC7D11523CDE90034286824230B
:10B9E0006E221E2118F0DCFB2868754BC0F818B0D9
:10B9F000092EC36100F3B78072491FF0DBF8286895
:10BA00000A2231461FF00CFB28686F496FF01F13A4
:10BA1000C3611FF0CFF8B8F1090F00F39E806949A8
:10BA200028681FF0C7F828680A2241461FF0F8FA74
:10BA3000654928681FF0BEF828680A2251461FF0A1
:10BA4000EFFA96E763481AF08BFD18B3002CAED0DE
:10BA5000012C00F08D80022C00F01D815E481AF050
:10BA60007FFD7AE71AF07CFD0028F1D15A481AF0E0
:10BA700077FD00283FF471AF012C15D0022C7FF424
:10BA80006CAF0AF1010A40F633039A4500F30C81CA
:10BA9000022462E750481AF063FD00283FF45DAFCE
:10BAA000002C8CD0012CE9D108F10108B8F10C0F61
:10BAB00000F3ED80012450E728686FF01F13092E72
:10BAC000C0F818B0C36100F3C2803E491FF072F89D
:10BAD00028680A2231461FF0A3FA3B4928681FF064
